{"abi":[{"type":"function","name":"addDebt","inputs":[{"name":"_creditor","type":"address","internalType":"address"},{"name":"_debtor","type":"address","internalType":"address"},{"name":"_amount","type":"uint256","internalType":"uint256"}],"outputs":[{"name":"","type":"uint256","internalType":"uint256"}],"stateMutability":"nonpayable"},{"type":"function","name":"debtCounter","inputs":[],"outputs":[{"name":"","type":"uint256","internalType":"uint256"}],"stateMutability":"view"},{"type":"function","name":"debts","inputs":[{"name":"","type":"uint256","internalType":"uint256"}],"outputs":[{"name":"creditor","type":"address","internalType":"address"},{"name":"debtor","type":"address","internalType":"address"},{"name":"amount","type":"uint256","internalType":"uint256"},{"name":"timestamp","type":"uint256","internalType":"uint256"},{"name":"settled","type":"bool","internalType":"bool"}],"stateMutability":"view"},{"type":"function","name":"getDebt","inputs":[{"name":"_debtId","type":"uint256","internalType":"uint256"}],"outputs":[{"name":"","type":"tuple","internalType":"struct MicroDebtTracker.Debt","components":[{"name":"creditor","type":"address","internalType":"address"},{"name":"debtor","type":"address","internalType":"address"},{"name":"amount","type":"uint256","internalType":"uint256"},{"name":"timestamp","type":"uint256","internalType":"uint256"},{"name":"settled","type":"bool","internalType":"bool"}]}],"stateMutability":"view"},{"type":"function","name":"getMyDebts","inputs":[],"outputs":[{"name":"","type":"uint256[]","internalType":"uint256[]"}],"stateMutability":"view"},{"type":"function","name":"settleDebt","inputs":[{"name":"_debtId","type":"uint256","internalType":"uint256"}],"outputs":[],"stateMutability":"nonpayable"},{"type":"function","name":"userDebts","inputs":[{"name":"","type":"address","internalType":"address"},{"name":"","type":"uint256","internalType":"uint256"}],"outputs":[{"name":"","type":"uint256","internalType":"uint256"}],"stateMutability":"view"},{"type":"event","name":"DebtCreated","inputs":[{"name":"debtId","type":"uint256","indexed":true,"internalType":"uint256"},{"name":"creditor","type":"address","indexed":false,"internalType":"address"},{"name":"debtor","type":"address","indexed":false,"internalType":"address"},{"name":"amount","type":"uint256","indexed":false,"internalType":"uint256"}],"anonymous":false},{"type":"event","name":"DebtSettled","inputs":[{"name":"debtId","type":"uint256","indexed":true,"internalType":"uint256"}],"anonymous":false}],"bytecode":{"object":"0x608060405234801561000f575f80fd5b50610c978061001d5f395ff3fe608060405234801561000f575f80fd5b506004361061007b575f3560e01c80636a283d51116100595780636a283d51146100e957806385af9b3f14610119578063c9dd1f3c1461014d578063d045330b1461017d5761007b565b806327a0bb331461007f5780632f57b8bf1461009b578063365e84d5146100b9575b5f80fd5b610099600480360381019061009491906107af565b61019b565b005b6100a36102f6565b6040516100b091906107e9565b60405180910390f35b6100d360048036038101906100ce919061085c565b6102fc565b6040516100e091906107e9565b60405180910390f35b61010360048036038101906100fe919061089a565b610327565b60405161011091906107e9565b60405180910390f35b610133600480360381019061012e91906107af565b610513565b604051610144959493929190610913565b60405180910390f35b610167600480360381019061016291906107af565b61058e565b60405161017491906109f7565b60405180910390f35b61018561068f565b6040516101929190610ab8565b60405180910390f35b5f808281526020019081526020015f206004015f9054906101000a900460ff16156101fb576040517f08c379a00000000000000000000000000000000000000000000000000000000081526004016101f290610b32565b60405180910390fd5b5f808281526020019081526020015f206001015f9054906101000a900473ffffffffffffffffffffffffffffffffffffffff1673ffffffffffffffffffffffffffffffffffffffff163373ffffffffffffffffffffffffffffffffffffffff161461029b576040517f08c379a000000000000000000000000000000000000000000000000000000000815260040161029290610b9a565b60405180910390fd5b60015f808381526020019081526020015f206004015f6101000a81548160ff021916908315150217905550807fd317a8d1b0f91ab21ca40d0a726a7f5e8e55110bf311a0b40584990fdd1e787360405160405180910390a250565b60015481565b6002602052815f5260405f208181548110610315575f80fd5b905f5260205f20015f91509150505481565b5f60015f81548092919061033a90610be5565b91905055506040518060a001604052808573ffffffffffffffffffffffffffffffffffffffff1681526020018473ffffffffffffffffffffffffffffffffffffffff1681526020018381526020014281526020015f15158152505f8060015481526020019081526020015f205f820151815f015f6101000a81548173ffffffffffffffffffffffffffffffffffffffff021916908373ffffffffffffffffffffffffffffffffffffffff1602179055506020820151816001015f6101000a81548173ffffffffffffffffffffffffffffffffffffffff021916908373ffffffffffffffffffffffffffffffffffffffff16021790555060408201518160020155606082015181600301556080820151816004015f6101000a81548160ff02191690831515021790555090505060025f8473ffffffffffffffffffffffffffffffffffffffff1673ffffffffffffffffffffffffffffffffffffffff1681526020019081526020015f20600154908060018154018082558091505060019003905f5260205f20015f90919091909150556001547fb7a4c400b988956e7c758263cde3de3e89a2ec991e3dd2969e93157d3896dd6e8585856040516104ff93929190610c2c565b60405180910390a260015490509392505050565b5f602052805f5260405f205f91509050805f015f9054906101000a900473ffffffffffffffffffffffffffffffffffffffff1690806001015f9054906101000a900473ffffffffffffffffffffffffffffffffffffffff1690806002015490806003015490806004015f9054906101000a900460ff16905085565b610596610720565b5f808381526020019081526020015f206040518060a00160405290815f82015f9054906101000a900473ffffffffffffffffffffffffffffffffffffffff1673ffffffffffffffffffffffffffffffffffffffff1673ffffffffffffffffffffffffffffffffffffffff168152602001600182015f9054906101000a900473ffffffffffffffffffffffffffffffffffffffff1673ffffffffffffffffffffffffffffffffffffffff1673ffffffffffffffffffffffffffffffffffffffff1681526020016002820154815260200160038201548152602001600482015f9054906101000a900460ff1615151515815250509050919050565b606060025f3373ffffffffffffffffffffffffffffffffffffffff1673ffffffffffffffffffffffffffffffffffffffff1681526020019081526020015f2080548060200260200160405190810160405280929190818152602001828054801561071657602002820191905f5260205f20905b815481526020019060010190808311610702575b5050505050905090565b6040518060a001604052805f73ffffffffffffffffffffffffffffffffffffffff1681526020015f73ffffffffffffffffffffffffffffffffffffffff1681526020015f81526020015f81526020015f151581525090565b5f80fd5b5f819050919050565b61078e8161077c565b8114610798575f80fd5b50565b5f813590506107a981610785565b92915050565b5f602082840312156107c4576107c3610778565b5b5f6107d18482850161079b565b91505092915050565b6107e38161077c565b82525050565b5f6020820190506107fc5f8301846107da565b92915050565b5f73ffffffffffffffffffffffffffffffffffffffff82169050919050565b5f61082b82610802565b9050919050565b61083b81610821565b8114610845575f80fd5b50565b5f8135905061085681610832565b92915050565b5f806040838503121561087257610871610778565b5b5f61087f85828601610848565b92505060206108908582860161079b565b9150509250929050565b5f805f606084860312156108b1576108b0610778565b5b5f6108be86828701610848565b93505060206108cf86828701610848565b92505060406108e08682870161079b565b9150509250925092565b6108f381610821565b82525050565b5f8115159050919050565b61090d816108f9565b82525050565b5f60a0820190506109265f8301886108ea565b61093360208301876108ea565b61094060408301866107da565b61094d60608301856107da565b61095a6080830184610904565b9695505050505050565b61096d81610821565b82525050565b61097c8161077c565b82525050565b61098b816108f9565b82525050565b60a082015f8201516109a55f850182610964565b5060208201516109b86020850182610964565b5060408201516109cb6040850182610973565b5060608201516109de6060850182610973565b5060808201516109f16080850182610982565b50505050565b5f60a082019050610a0a5f830184610991565b92915050565b5f81519050919050565b5f82825260208201905092915050565b5f819050602082019050919050565b5f610a448383610973565b60208301905092915050565b5f602082019050919050565b5f610a6682610a10565b610a708185610a1a565b9350610a7b83610a2a565b805f5b83811015610aab578151610a928882610a39565b9750610a9d83610a50565b925050600181019050610a7e565b5085935050505092915050565b5f6020820190508181035f830152610ad08184610a5c565b905092915050565b5f82825260208201905092915050565b7f416c726561647920736574746c656400000000000000000000000000000000005f82015250565b5f610b1c600f83610ad8565b9150610b2782610ae8565b602082019050919050565b5f6020820190508181035f830152610b4981610b10565b9050919050565b7f4e6f7420796f75722064656274000000000000000000000000000000000000005f82015250565b5f610b84600d83610ad8565b9150610b8f82610b50565b602082019050919050565b5f6020820190508181035f830152610bb181610b78565b9050919050565b7f4e487b71000000000000000000000000000000000000000000000000000000005f52601160045260245ffd5b5f610bef8261077c565b91507fffffffffffffffffffffffffffffffffffffffffffffffffffffffffffffffff8203610c2157610c20610bb8565b5b600182019050919050565b5f606082019050610c3f5f8301866108ea565b610c4c60208301856108ea565b610c5960408301846107da565b94935050505056fea2646970667358221220a286f5102642ee979115d3df6ec56e747c25966722b41ae3504f36fe6265f41664736f6c63430008140033","linkReferences":{}},"methodIdentifiers":{"addDebt(address,address,uint256)":"6a283d51","debtCounter()":"2f57b8bf","debts(uint256)":"85af9b3f","getDebt(uint256)":"c9dd1f3c","getMyDebts()":"d045330b","settleDebt(uint256)":"27a0bb33","userDebts(address,uint256)":"365e84d5"},"id":19}